:020000041000EA
:1010000020050020191000100000000099100010A9
:1010100000040100000000801149124A124B00F048
:1010200018F8124880471249124A134B00F011F881
:101030001249134A134B00F00CF81349134A0020CD
:10104000521A02DD043A8850FCDC114880471148EE
:1010500080479B1A03DD043BC858D050FBDC704727
:10106000B82500100C0000201C0100209D1000106D
:10107000C82600102005002020050020C8260010EA
:101080002005002020050020200500206805002004
:1010900085220010091F0010FEE7000080B500AF98
:1010A00000F050FE00F094FEBD4680BD80B500AF5C
:1010B000124B1A68FF231B0213401A0A104B1A60C6
:1010C0000E4B1B68FF221A400E4B1A600C4B1B681C
:1010D000002B0ED00A4B1B681A020A4B1B68D31850
:1010E0000948191C01F03CF8031C5A00074B1A6010
:1010F00002E0064B064A1A60BD4680BD000301406F
:101100002005002024050020000024F4FC3F0020DE
:101110000048E80190B585B000AFF8607A600B2315
:10112000FB180A1C1A700B23FB181B789B08DBB2F8
:10113000181C0B23FB181B789B08DBB21A1CFB68DE
:1011400004329200D3580B22BA18127803210A40B5
:10115000D200111CF8228A40D2431A40111CFB68AD
:10116000021D9200D150FB685B6F0B22BA181278F7
:101170005200111C03228A40D2431A40FB685A676E
:101180000B23FB181B78DB08DBB2181C0B23FB18A6
:101190001B78DB08DBB21A1CFB6810329200D358B4
:1011A0000B22BA18127807210A409200111C04225F
:1011B0008A40D2431A40111CFB68021C1032920074
:1011C000D1500B23FB181B78DB08DBB2181C0B2358
:1011D000FB181B78DB08DBB21A1CFB68103292008C
:1011E000D2587B685B781C1C0B23FB181B780721EB
:1011F0000B409B009C40231C1A43111CFB68021CE3
:1012000010329200D150FB68204A93420BD1FB6808
:101210001B6E0B22BA181278012191400A1CD2438E
:101220001A40FB681A667B681B78DBB25BB2002B46
:1012300007DA7B685A680B23FB181B789A40FB6817
:101240005A600B23FB181B789B08DBB2181C0B237E
:10125000FB181B789B08DBB21A1CFB680432920057
:10126000D2587B681B781C1C0B23FB181B780321AE
:101270000B40DB009C40231C1A43111CFB68021D21
:101280009200D150BD4605B090BDC046000204405A
:1012900080B500AF024BC3225A62BD4680BDC04636
:1012A0000000014080B500AF054BC0225A62C04625
:1012B000034B5B6A04221340FAD1BD4680BDC04691
:1012C0000000014080B582B000AF7860FFF7EAFF10
:1012D0000C4A0C4B1B680C4919407B689B681943EE
:1012E0007B685B680B431360FFF7D2FF7B685B781A
:1012F0001A1C7B681B78101C191C00F007F8BD46EF
:1013000002B080BD00030140FFFFF0FF80B584B054
:1013100000AF78603960FFF7C5FF214B1A68FF23E3
:101320001B0213401B0AFB601D4B1D4A12681D491E
:1013300011403A680A431C490A431A60C046184BD8
:101340001A688023DB051340F9D1FA687B689A425A
:1013500006D8FA687B68101C191C00F053F805E0E9
:10136000FA687B68101C191C00F022F80C4B0C4A20
:1013700012680E4911407A6812020A430A490A4368
:101380001A60C046064B1A688023DB051340F9D16A
:10139000FFF77EFFFFF78AFEBD4604B080BDC04662
:1013A0000003014000FF0FC00000F03FFF000FC02E
:1013B00080B582B000AF7860396014E07B689B082C
:1013C0007B600D4B0C4A12680C4911407A6812027E
:1013D0000A430B490A431A60C046074B1A68802328
:1013E000DB051340F9D13B689A007B689A42E5D34C
:1013F000BD4602B080BDC04600030140FF000FC0E3
:101400000000F03F80B582B000AF7860396019E02D
:101410007B68002B01D101237B607B689B007B6094
:101420000C4B0C4A12680C4911407A6812020A43AC
:101430000A490A431A60C046064B1A688023DB0536
:101440001340F9D17B689A003B689A42E0D3BD46CD
:1014500002B080BD00030140FF000FC00000F03F5C
:1014600080B582B000AF7860081C111CFB1C021C08
:101470001A70BB1C0A1C1A707B685B6FFA1C12780E
:101480005200111C03228A40D2431A407B685A67DB
:101490007B685A6FBB1C1B78F91C097849008B408C
:1014A0001A437B685A67BD4602B080BD80B500AF65
:1014B000BD4680BDB0B582B000AF021C3960FB1DD7
:1014C0001A70FB1D1B787F2B27D82D4CFB1D1B781A
:1014D0005BB29B082A49FA1D127852B29208C032B8
:1014E00092005258F91D0978081C03210140C900D7
:1014F000081CFF218140C94311403A689201FF2036
:101500000240F81D0078051C03202840C0008240DE
:101510000A43C0339B001A512EE01A4CFB1D1B7866
:101520001A1C0F231340083B9908164AFB1D1B7811
:10153000181C0F230340083B9B0806339B00D3185D
:101540005B68FA1D1278101C03220240D200101CA6
:10155000FF228240D2431A403B689B01FF20034098
:10156000F81D0078051C03202840C00083401A4362
:101570008B1D9B00E3185A60BD4602B0B0BDC0464B
:1015800000E100E000ED00E080B582B000AF7860DF
:101590007B68013B0C4A934201D9012310E00B4BBD
:1015A0007A68013A5A6001235B42181C0321FFF755
:1015B00081FF064B00229A60044B07221A60002329
:1015C000181CBD4602B080BDFFFFFF0010E000E028
:1015D00090B587B000AF78600F23FB1800221A7017
:1015E0006B497A68131CDB009B189B00CB181833DF
:1015F0001B68BB60674B1B68002B09D17A68131C02
:10160000DB009B189B00624A9A18624B1A60BCE090
:10161000604B1B687B61BB683B61AAE07B699B698F
:101620001A1C3B699B1A3B613B69002B77DC7B6989
:101630005B68002B25D07B695A6879680B1CDB003E
:101640005B189B0052495B1813607B6959685048CE
:101650007A68131CDB009B189B00C31859604C4927
:101660007A68131CDB009B189B007A695A507A68D1
:10167000131CDB009B189B00454A9A187B695A6033
:101680001BE0444B186842497A68131CDB009B1826
:101690009B0058503F4B1A6879680B1CDB005B18A5
:1016A0009B003B495B1853607A68131CDB009B1856
:1016B0009B00374A9A18374B1A6035497A68131CD1
:1016C000DB009B189B005B589A693B69D118304836
:1016D0007A68131CDB009B189B00C3181833196031
:1016E0002B497A68131CDB009B189B005A5828482A
:1016F00079680B1CDB005B189B001B589869244C15
:1017000079680B1CDB005B189B00E31818331B681F
:10171000C31A93610F23FB1801221A7026E03B695C
:10172000002B23DD7B691B68002B1FD118497A68C9
:10173000131CDB009B189B00CB187A695A607A68EF
:10174000131CDB009B189B00114A9A187B691A60D6
:1017500039690F487A68131CDB009B189B00C3187B
:10176000183319600F23FB1801221A707B691B685C
:101770007B617B69002B08D00F23FB181B780122AB
:101780005340DBB2002B00D048E7BD4607B090BD08
:10179000440500202805002080B584B000AF7860A3
:1017A0007A68131CDB009B189B00284A9B18FB607F
:1017B000FB685B68002B07D1FB681B68002B03D11B
:1017C000234B00221A603DE0FB685B68002B14D1BC
:1017D000FB681A681E4B1A601D4B1B6800225A607A
:1017E0001B4B1B681A4A12689169FA6892698A1839
:1017F0009A61FB6800221A6024E0FB681B68002BDA
:1018000007D1FB685B6800221A60FB6800225A60FF
:1018100018E0FB685B68FA6812681A60FB681B686E
:10182000FA6852685A60FB681B68FA681268916926
:10183000FA6892698A189A61FB6800221A60FB684C
:1018400000225A60BD4604B080BDC0464405002059
:101850002805002080B582B000AF2F4B1B687B604D
:1018600050E07B6820229B5C002B13D07B685B6977
:10187000181CFFF791FF7B6800225A737B685B6935
:101880001A1C01239340DA43244B1B681A40234B54
:101890001A6034E07B681B7B002B12D17B685B7B7A
:1018A000012B2CD17B685B69181CFFF775FF7B68E7
:1018B00002225A737B689A687B681B69181C9047E0
:1018C0001DE07B681B7B012B18D17B685B7B012BA8
:1018D00015D17B685B69181CFFF75EFF7B68DA69CE
:1018E0007B689A617B685B69181CFFF771FE7B68F7
:1018F0009A687B681B69181C904700E009E0064B5A
:101900001B687B607B68002B03D07B689B69002B86
:10191000A7D0BD4602B080BD280500202C050020C0
:1019200080B582B000AF0E4B1B687B600D4B1B680F
:101930005A1C0C4B1A607B68002B0ED07B689B698D
:10194000012B05D97B689B695A1E7B689A6104E06C
:101950007B6800229A61FFF77DFFBD4602B080BD23
:10196000280500203005002080B584B000AF7860E5
:101970000F23FB1800221A707B681B78012253404A
:10198000DBB2002B20D0144B00221A60FA23DB01BB
:10199000181CFFF7F9FD021C0F23FB181A700F2308
:1019A000FB181B78012B0FD001235B42181C03216D
:1019B000FFF780FD094B00221A607B6801221A7034
:1019C0000F23FB1800221A700F23FB181B78181C1A
:1019D000BD4604B080BDC046280500202C0500206F
:1019E00080B588B000AFF8607A603B600B23FB18CD
:1019F0000A1C1A700023FB610023BB6100237B617A
:101A0000FB68444A934202D80023FB617DE0002337
:101A1000BB6177E0BB6901229A403F4B1B681340D2
:101A20006DD1BB6901229A403B4B1B681A433A4B6C
:101A30001A603A49BA69131CDB009B189B00CB184B
:101A40001033BA695A603549BA69131CDB009B1818
:101A50009B00CB1808330B22BA1812781A712F4941
:101A6000BA69131CDB009B189B00CB1808330222B9
:101A70005A71FB68181CFA23990000F071FB031CD3
:101A80007B617B69591C2548BA69131CDB009B18D4
:101A90009B00C318183319602049BA69131CDB0076
:101AA0009B189B00CB1818337A695A601B49BA6996
:101AB000131CDB009B189B00CB1808337A681A6054
:101AC0001649BA69131CDB009B189B00CB18103316
:101AD0003A681A601149BA69131CDB009B189B0015
:101AE000CB1800225A600D49BA69131CDB009B1801
:101AF0009B0000225A50BB690133FB6105E0BB69C2
:101B00000133BB61BB69002B84D0FB69181CBD4647
:101B100008B080BDE70300002C050020440500202C
:101B200080B584B000AF78600F23FB1801221A70D3
:101B30007B685A1E1C49131CDB009B189B00CB18AA
:101B400008335B79022B28D17B685A1E7B68591EAB
:101B500015480B1CDB005B189B00C31818335B682F
:101B6000591C1148131CDB009B189B00C318183329
:101B700019607B685A1E0C49131CDB009B189B00E4
:101B8000CB18083301225A717B68013B181CFFF700
:101B90001FFD0F23FB1800221A700F23FB181B7860
:101BA000181CBD4604B080BD4405002080B582B03D
:101BB00000AF021CFB1D1A70FB1D1B787F2B09D880
:101BC000064BFA1D1278111C1F220A400121914078
:101BD0000A1C1A60BD4602B080BDC04600E100E0AC
:101BE000B0B582B000AF021C3960FB1D1A70FB1D3E
:101BF0001B787F2B27D82D4CFB1D1B785BB29B08D5
:101C00002A49FA1D127852B29208C03292005258F4
:101C1000F91D0978081C03210140C900081CFF2197
:101C20008140C94311403A689201FF200240F81DEB
:101C30000078051C03202840C00082400A43C033BE
:101C40009B001A512EE01A4CFB1D1B781A1C0F2307
:101C50001340083B9908164AFB1D1B78181C0F23DC
:101C60000340083B9B0806339B00D3185B68FA1DB2
:101C70001278101C03220240D200101CFF22824066
:101C8000D2431A403B689B01FF200340F81D0078B7
:101C9000051C03202840C00083401A438B1D9B0075
:101CA000E3185A60BD4602B0B0BDC04600E100E096
:101CB00000ED00E080B582B000AF78607B681B78F3
:101CC0005BB2181CFFF772FFBD4602B080BDC04674
:101CD00080B582B000AF78607B681A787B685B78EB
:101CE000191C53B2181CFFF77BFF7B689B78002BF5
:101CF00003D07B68181CFFF7DDFF0023181CBD46CE
:101D000002B080BD80B582B000AF78607B68196892
:101D10007B681A7B7B680433081C111C1A1CFFF7B4
:101D2000F9F97B6819687B681A7B7B685B7B081C08
:101D3000111C1A1CFFF794FB0023181CBD4602B0AF
:101D400080BDC04680B500AFBD4680BD80B584B0C3
:101D500000AF78600F23FB1800221A700E23FB18C7
:101D600000221A700D23FB1800221A700C23FB1896
:101D700000221A700B23FB1800221A707B681B7854
:101D800001225340DBB2002B1BD00E23FA180D2387
:101D9000FB1812781B781343DAB20C23FB181B785C
:101DA0001343D9B20F23FB180B22BA1812780A4337
:101DB0001A700F23FB181B78002B02D17B680122BD
:101DC0001A700F23FB181B78181CBD4604B080BD89
:101DD00090B585B000AF3B1D044A13CA13C33B1D29
:101DE000181CFFF76FFABD4605B090BDF422001035
:101DF00090B583B000AFFB1D00221A70FC1D1C4B78
:101E0000181CFFF7A3FF031C2370FB1D1B78002B7E
:101E100006D1FC1D174B181CFFF75AFF031C23703B
:101E2000FB1D1B78002B06D1FC1D134B181CFFF764
:101E300069FF031C2370FB1D1B78002B06D1FC1DC2
:101E40000E4B181CFFF75EFF031C2370FB1D1B7855
:101E5000002B06D1FC1D0A4B181CFFF785FD031C47
:101E60002370FB1D1B78181CBD4603B090BDC046F7
:101E700038050020D0220010D4220010E4220010E7
:101E80003405002080B582B000AF78600A1CFB1CCE
:101E90001A70FB1C1B7801229A407B685A60BD4671
:101EA00002B080BD80B582B000AF78600A1CFB1C18
:101EB0001A70FB1C1B78802252029A407B685A6081
:101EC000BD4602B080BDC04680B582B000AF78602C
:101ED0007B681A687B681B7B101C191CFFF7D2FFFC
:101EE000BD4602B080BDC04680B582B000AF78600C
:101EF0007B681A687B681B7B101C191CFFF7D2FFDC
:101F0000BD4602B080BDC04690B583B000AFFFF7BC
:101F10006FFF0D4A0D4B101C01211A1C0023FFF707
:101F20005FFD031C7B607B68002B00D1FEE7FC1C7F
:101F30007B68181CFFF7F4FD031C2370FB1C1B7847
:101F4000002B00D0FEE7FEE7A0860100511F001025
:101F500080B500AF4E4B1B68073BAD2B00D98BE023
:101F60009A004C4BD3181B689F4600F095F888E008
:101F700000F092F885E000F08FF882E000F08CF835
:101F80007FE000F089F87CE000F086F879E000F06E
:101F900083F876E000F080F873E000F07DF870E000
:101FA00000F07AF86DE000F077F86AE000F074F87D
:101FB00067E000F071F864E000F06EF861E000F0B6
:101FC0006BF85EE000F068F85BE000F065F858E060
:101FD00000F062F855E000F05FF852E000F05CF8C5
:101FE0004FE000F059F84CE000F056F849E000F0FE
:101FF00053F846E000F050F843E000F04DF840E0C0
:1020000000F04AF83DE000F047F83AE000F044F80C
:1020100037E000F041F834E000F03EF831E000F045
:102020003BF82EE000F038F82BE000F067F828E0ED
:1020300000F064F825E000F061F822E000F05EF8BE
:102040001FE000F05BF81CE000F058F819E000F029
:1020500055F816E000F052F813E000F04FF810E0E9
:1020600000F03AF80DE000F037F800F067F808E00B
:10207000074B00221A6004E000F01EF800F04EF852
:10208000C046034B1B685A1C014B1A60BD4680BDFD
:10209000400500200023001080B500AF044B181C41
:1020A000FFF712FF034B01221A70BD4680BDC046E8
:1020B000D42200103C05002080B500AF044B181C52
:1020C000FFF712FF034B00221A70BD4680BDC046C9
:1020D000D42200103C05002080B500AF064B1B78D1
:1020E00001225340DBB2002B02D0FFF7D5FF01E005
:1020F000FFF7E2FFBD4680BD3C05002080B500AF84
:10210000044B181CFFF7E0FE034B01221A70BD467A
:1021100080BDC046E42200103D05002080B500AF20
:10212000044B181CFFF7E0FE034B00221A70BD465B
:1021300080BDC046E42200103D05002080B500AF00
:10214000064B1B7801225340DBB2002B02D0FFF775
:10215000D5FF01E0FFF7E2FFBD4680BD3D05002051
:10216000002243088B4274D303098B425FD3030AD6
:102170008B4244D3030B8B4228D3030C8B420DD3E9
:10218000FF22090212BA030C8B4202D31212090277
:1021900065D0030B8B4219D300E0090AC30B8B42B5
:1021A00001D3CB03C01A5241830B8B4201D38B0363
:1021B000C01A5241430B8B4201D34B03C01A524108
:1021C000030B8B4201D30B03C01A5241C30A8B424B
:1021D00001D3CB02C01A5241830A8B4201D38B0236
:1021E000C01A5241430A8B4201D34B02C01A5241DA
:1021F000030A8B4201D30B02C01A5241CDD2C3094C
:102200008B4201D3CB01C01A524183098B4201D3C7
:102210008B01C01A524143098B4201D34B01C01AB2
:10222000524103098B4201D30B01C01A5241C3082A
:102230008B4201D3CB00C01A524183088B4201D399
:102240008B00C01A524143088B4201D34B00C01A85
:102250005241411A00D20146524110467047FFE7F1
:1022600001B5002000F00CF802BDC0460029F7D0EF
:1022700003B5FFF775FF0EBC4243891A1847C046E5
:102280007047C0460E4B70B500251E1C0D4CE41A5D
:10229000A410A54204D0AB00F35898470135F8E7E5
:1022A000FFF704F9084B00251E1C084CE41AA41083
:1022B000A54204D0AB00F35898470135F8E770BD4C
:1022C00020050020200500202005002020050020FA
:1022D0000003000000010440800000000000010035
:1022E0000000000000010440800000000000010028
:1022F00001000000000100000000010000000000DB
:102300006A1F001078200010701F00107820001045
:10231000761F0010782000107C1F0010782000101D
:102320007820001078200010821F00107820001004
:102330007820001078200010881F001078200010EE
:102340008E1F00108E1F00108E1F001078200010AE
:10235000941F0010782000109A1F001078200010A1
:102360007820001078200010A01F001078200010A6
:10237000A61F0010A61F0010A61F00107820001036
:10238000AC1F001078200010B21F00107820001041
:102390007820001078200010B81F0010B81F00101F
:1023A000B81F001078200010BE1F0010BE1F0010C4
:1023B000BE1F001078200010C41F0010C41F0010A2
:1023C000C41F001078200010782000107820001022
:1023D000782000107820001078200010782000105D
:1023E000CA1F001078200010D01F0010D01F00104E
:1023F000D01F001078200010D61F0010D61F00102C
:10240000D61F0010782000107820001078200010CF
:10241000DC1F0010DC1F0010DC1F001078200010F3
:10242000E21F0010E21F0010E21F001078200010D1
:10243000E81F0010E81F0010E81F001078200010AF
:102440007820001078200010EE1F00107820001077
:10245000F41F0010F41F0010F41F0010782000106B
:10246000FA1F00107820001078200010782000104B
:102470000020001078200010062000100620001018
:1024800006200010782000100C200010782000108A
:102490001220001078200010782000107820001002
:1024A00018200010182000101820001078200010AC
:1024B0001E2000107820001024200010782000102A
:1024C000782000107820001078200010782000106C
:1024D00078200010782000102A20001078200010AA
:1024E00030200010782000103620001078200010D6
:1024F00078200010782000103C2000103C200010B4
:102500003C200010782000104220001042200010D3
:1025100042200010782000104820001048200010B1
:10252000482000107820001078200010782000103B
:102530004E20001078200010542000107820001049
:102540005A20001078200010782000107820001009
:1025500078200010782000107820001078200010DB
:102560006020001066200010662000106620001019
:102570006620001066200010662000106620001003
:1025800066200010662000106620001066200010F3
:1025900066200010662000106620001066200010E3
:1025A00066200010662000106620001066200010D3
:0825B0006620001070200010ED
:1025B8002C488746000000000000000000000000D2
:1025C8000000000000000000000000000000000003
:1025D8002548874600000000000000002348874681
:1025E8002348874623488746234887462348874603
:1025F80023488746234887462348874623488746F3
:102608000000000000000000214887462148874656
:1026180021488746214887462148874621488746DA
:102628002148874621488746000000000000000036
:1026380000000000000000001D4887461D4887462E
:102648001D4887461D48874600000000000000001E
:102658000000000000000000000000000000000072
:102668000000000099100010991000109910001037
:1026780021190010991000109910001099100010DD
:10268800991000109910001099100010991000105E
:10269800991000109910001099100010991000104E
:1026A800991000109910001099100010991000103E
:1026B800991000109910001099100010991000102E
:0400000510001019BE
:00000001FF
